{
  "_format": "hh-sol-artifact-1",
  "contractName": "PalPal",
  "sourceName": "contracts/PalPal.sol",
  "abi": [
    {
      "inputs": [],
      "stateMutability": "nonpayable",
      "type": "constructor"
    },
    {
      "anonymous": false,
      "inputs": [
        {
          "indexed": true,
          "internalType": "address",
          "name": "owner",
          "type": "address"
        },
        {
          "indexed": true,
          "internalType": "address",
          "name": "approved",
          "type": "address"
        },
        {
          "indexed": true,
          "internalType": "uint256",
          "name": "tokenId",
          "type": "uint256"
        }
      ],
      "name": "Approval",
      "type": "event"
    },
    {
      "anonymous": false,
      "inputs": [
        {
          "indexed": true,
          "internalType": "address",
          "name": "owner",
          "type": "address"
        },
        {
          "indexed": true,
          "internalType": "address",
          "name": "operator",
          "type": "address"
        },
        {
          "indexed": false,
          "internalType": "bool",
          "name": "approved",
          "type": "bool"
        }
      ],
      "name": "ApprovalForAll",
      "type": "event"
    },
    {
      "anonymous": false,
      "inputs": [
        {
          "indexed": true,
          "internalType": "address",
          "name": "from",
          "type": "address"
        },
        {
          "indexed": true,
          "internalType": "address",
          "name": "to",
          "type": "address"
        },
        {
          "indexed": true,
          "internalType": "uint256",
          "name": "tokenId",
          "type": "uint256"
        }
      ],
      "name": "Transfer",
      "type": "event"
    },
    {
      "inputs": [
        {
          "internalType": "address",
          "name": "to",
          "type": "address"
        },
        {
          "internalType": "uint256",
          "name": "tokenId",
          "type": "uint256"
        }
      ],
      "name": "approve",
      "outputs": [],
      "stateMutability": "nonpayable",
      "type": "function"
    },
    {
      "inputs": [
        {
          "internalType": "address",
          "name": "owner",
          "type": "address"
        }
      ],
      "name": "balanceOf",
      "outputs": [
        {
          "internalType": "uint256",
          "name": "",
          "type": "uint256"
        }
      ],
      "stateMutability": "view",
      "type": "function"
    },
    {
      "inputs": [
        {
          "internalType": "uint256",
          "name": "_id",
          "type": "uint256"
        },
        {
          "internalType": "string",
          "name": "_comment",
          "type": "string"
        }
      ],
      "name": "commentContent",
      "outputs": [],
      "stateMutability": "nonpayable",
      "type": "function"
    },
    {
      "inputs": [],
      "name": "contentCount",
      "outputs": [
        {
          "internalType": "uint256",
          "name": "",
          "type": "uint256"
        }
      ],
      "stateMutability": "view",
      "type": "function"
    },
    {
      "inputs": [
        {
          "internalType": "uint256",
          "name": "",
          "type": "uint256"
        }
      ],
      "name": "contents",
      "outputs": [
        {
          "internalType": "uint256",
          "name": "id",
          "type": "uint256"
        },
        {
          "internalType": "address",
          "name": "creator",
          "type": "address"
        },
        {
          "internalType": "string",
          "name": "contentHash",
          "type": "string"
        },
        {
          "internalType": "string",
          "name": "thumbnailHash",
          "type": "string"
        },
        {
          "internalType": "string",
          "name": "detailsHash",
          "type": "string"
        },
        {
          "internalType": "bool",
          "name": "isUploaded",
          "type": "bool"
        },
        {
          "internalType": "uint256",
          "name": "likesCount",
          "type": "uint256"
        },
        {
          "internalType": "uint256",
          "name": "tipsCount",
          "type": "uint256"
        },
        {
          "internalType": "uint256",
          "name": "commentsCount",
          "type": "uint256"
        }
      ],
      "stateMutability": "view",
      "type": "function"
    },
    {
      "inputs": [
        {
          "internalType": "uint256",
          "name": "tokenId",
          "type": "uint256"
        }
      ],
      "name": "getApproved",
      "outputs": [
        {
          "internalType": "address",
          "name": "",
          "type": "address"
        }
      ],
      "stateMutability": "view",
      "type": "function"
    },
    {
      "inputs": [
        {
          "internalType": "uint256",
          "name": "_id",
          "type": "uint256"
        }
      ],
      "name": "getComments",
      "outputs": [
        {
          "components": [
            {
              "internalType": "address",
              "name": "commentor",
              "type": "address"
            },
            {
              "internalType": "string",
              "name": "comment",
              "type": "string"
            }
          ],
          "internalType": "struct PalPal.Comment[]",
          "name": "",
          "type": "tuple[]"
        }
      ],
      "stateMutability": "view",
      "type": "function"
    },
    {
      "inputs": [
        {
          "internalType": "uint256",
          "name": "_id",
          "type": "uint256"
        }
      ],
      "name": "getLikes",
      "outputs": [
        {
          "internalType": "address[]",
          "name": "",
          "type": "address[]"
        }
      ],
      "stateMutability": "view",
      "type": "function"
    },
    {
      "inputs": [
        {
          "internalType": "uint256",
          "name": "_id",
          "type": "uint256"
        }
      ],
      "name": "getTips",
      "outputs": [
        {
          "internalType": "address[]",
          "name": "",
          "type": "address[]"
        }
      ],
      "stateMutability": "view",
      "type": "function"
    },
    {
      "inputs": [
        {
          "internalType": "address",
          "name": "owner",
          "type": "address"
        },
        {
          "internalType": "address",
          "name": "operator",
          "type": "address"
        }
      ],
      "name": "isApprovedForAll",
      "outputs": [
        {
          "internalType": "bool",
          "name": "",
          "type": "bool"
        }
      ],
      "stateMutability": "view",
      "type": "function"
    },
    {
      "inputs": [
        {
          "internalType": "uint256",
          "name": "_id",
          "type": "uint256"
        }
      ],
      "name": "likeContent",
      "outputs": [],
      "stateMutability": "nonpayable",
      "type": "function"
    },
    {
      "inputs": [],
      "name": "makeAnNFT",
      "outputs": [],
      "stateMutability": "nonpayable",
      "type": "function"
    },
    {
      "inputs": [],
      "name": "name",
      "outputs": [
        {
          "internalType": "string",
          "name": "",
          "type": "string"
        }
      ],
      "stateMutability": "view",
      "type": "function"
    },
    {
      "inputs": [
        {
          "internalType": "uint256",
          "name": "tokenId",
          "type": "uint256"
        }
      ],
      "name": "ownerOf",
      "outputs": [
        {
          "internalType": "address",
          "name": "",
          "type": "address"
        }
      ],
      "stateMutability": "view",
      "type": "function"
    },
    {
      "inputs": [
        {
          "internalType": "address",
          "name": "from",
          "type": "address"
        },
        {
          "internalType": "address",
          "name": "to",
          "type": "address"
        },
        {
          "internalType": "uint256",
          "name": "tokenId",
          "type": "uint256"
        }
      ],
      "name": "safeTransferFrom",
      "outputs": [],
      "stateMutability": "nonpayable",
      "type": "function"
    },
    {
      "inputs": [
        {
          "internalType": "address",
          "name": "from",
          "type": "address"
        },
        {
          "internalType": "address",
          "name": "to",
          "type": "address"
        },
        {
          "internalType": "uint256",
          "name": "tokenId",
          "type": "uint256"
        },
        {
          "internalType": "bytes",
          "name": "data",
          "type": "bytes"
        }
      ],
      "name": "safeTransferFrom",
      "outputs": [],
      "stateMutability": "nonpayable",
      "type": "function"
    },
    {
      "inputs": [
        {
          "internalType": "address",
          "name": "operator",
          "type": "address"
        },
        {
          "internalType": "bool",
          "name": "approved",
          "type": "bool"
        }
      ],
      "name": "setApprovalForAll",
      "outputs": [],
      "stateMutability": "nonpayable",
      "type": "function"
    },
    {
      "inputs": [
        {
          "internalType": "bytes4",
          "name": "interfaceId",
          "type": "bytes4"
        }
      ],
      "name": "supportsInterface",
      "outputs": [
        {
          "internalType": "bool",
          "name": "",
          "type": "bool"
        }
      ],
      "stateMutability": "view",
      "type": "function"
    },
    {
      "inputs": [],
      "name": "symbol",
      "outputs": [
        {
          "internalType": "string",
          "name": "",
          "type": "string"
        }
      ],
      "stateMutability": "view",
      "type": "function"
    },
    {
      "inputs": [
        {
          "internalType": "uint256",
          "name": "_id",
          "type": "uint256"
        }
      ],
      "name": "tipCreator",
      "outputs": [],
      "stateMutability": "payable",
      "type": "function"
    },
    {
      "inputs": [
        {
          "internalType": "uint256",
          "name": "tokenId",
          "type": "uint256"
        }
      ],
      "name": "tokenURI",
      "outputs": [
        {
          "internalType": "string",
          "name": "",
          "type": "string"
        }
      ],
      "stateMutability": "view",
      "type": "function"
    },
    {
      "inputs": [
        {
          "internalType": "address",
          "name": "from",
          "type": "address"
        },
        {
          "internalType": "address",
          "name": "to",
          "type": "address"
        },
        {
          "internalType": "uint256",
          "name": "tokenId",
          "type": "uint256"
        }
      ],
      "name": "transferFrom",
      "outputs": [],
      "stateMutability": "nonpayable",
      "type": "function"
    },
    {
      "inputs": [
        {
          "internalType": "string",
          "name": "_contentHash",
          "type": "string"
        },
        {
          "internalType": "string",
          "name": "_thumbnailHash",
          "type": "string"
        },
        {
          "internalType": "string",
          "name": "_detailsHash",
          "type": "string"
        }
      ],
      "name": "uploadContent",
      "outputs": [],
      "stateMutability": "nonpayable",
      "type": "function"
    }
  ],
  "bytecode": "0x608060405260006007553480156200001657600080fd5b506040518060400160405280600b81526020017f4e46542050616c2d50616c0000000000000000000000000000000000000000008152506040518060400160405280600681526020017f4e46542d5050000000000000000000000000000000000000000000000000000081525081600090805190602001906200009b929190620001d4565b508060019080519060200190620000b4929190620001d4565b505050620001026040518060400160405280601b81526020017f546869732069732050616c50616c204e465420436f6e747261637400000000008152506200010860201b620018471760201c565b620003b1565b620001a8816040516024016200011f919062000328565b6040516020818303038152906040527f41304fac000000000000000000000000000000000000000000000000000000007bffffffffffffffffffffffffffffffffffffffffffffffffffffffff19166020820180517bffffffffffffffffffffffffffffffffffffffffffffffffffffffff8381831617835250505050620001ab60201b60201c565b50565b60008151905060006a636f6e736f6c652e6c6f679050602083016000808483855afa5050505050565b828054620001e2906200037b565b90600052602060002090601f01602090048101928262000206576000855562000252565b82601f106200022157805160ff191683800117855562000252565b8280016001018555821562000252579182015b828111156200025157825182559160200191906001019062000234565b5b50905062000261919062000265565b5090565b5b808211156200028057600081600090555060010162000266565b5090565b600081519050919050565b600082825260208201905092915050565b60005b83811015620002c0578082015181840152602081019050620002a3565b83811115620002d0576000848401525b50505050565b6000601f19601f8301169050919050565b6000620002f48262000284565b6200030081856200028f565b935062000312818560208601620002a0565b6200031d81620002d6565b840191505092915050565b60006020820190508181036000830152620003448184620002e7565b905092915050565b7f4e487b7100000000000000000000000000000000000000000000000000000000600052602260045260246000fd5b600060028204905060018216806200039457607f821691505b60208210811415620003ab57620003aa6200034c565b5b50919050565b613bc680620003c16000396000f3fe6080604052600436106101405760003560e01c806370a08231116100b6578063b97be95e1161006f578063b97be95e14610496578063c87b56dd146104b2578063c88261d5146104ef578063cc4596961461052c578063e4d098e114610557578063e985e9c51461056e57610140565b806370a082311461035a57806395d89b4114610397578063a209081e146103c2578063a22cb465146103ff578063b5ecf91214610428578063b88d4fde1461046d57610140565b806323b872dd1161010857806323b872dd1461023c57806323edf6971461026557806342842e0e146102a25780635a10a258146102cb5780635f37cd61146102f45780636352211e1461031d57610140565b806301ffc9a71461014557806306fdde031461018257806307495dad146101ad578063081812fc146101d6578063095ea7b314610213575b600080fd5b34801561015157600080fd5b5061016c6004803603810190610167919061272a565b6105ab565b6040516101799190612772565b60405180910390f35b34801561018e57600080fd5b5061019761068d565b6040516101a49190612826565b60405180910390f35b3480156101b957600080fd5b506101d460048036038101906101cf91906129b3565b61071f565b005b3480156101e257600080fd5b506101fd60048036038101906101f89190612a0f565b610888565b60405161020a9190612a7d565b60405180910390f35b34801561021f57600080fd5b5061023a60048036038101906102359190612ac4565b6108ce565b005b34801561024857600080fd5b50610263600480360381019061025e9190612b04565b6109e6565b005b34801561027157600080fd5b5061028c60048036038101906102879190612a0f565b610a46565b6040516102999190612caf565b60405180910390f35b3480156102ae57600080fd5b506102c960048036038101906102c49190612b04565b610ba0565b005b3480156102d757600080fd5b506102f260048036038101906102ed9190612cd1565b610bc0565b005b34801561030057600080fd5b5061031b60048036038101906103169190612a0f565b610d42565b005b34801561032957600080fd5b50610344600480360381019061033f9190612a0f565b610e51565b6040516103519190612a7d565b60405180910390f35b34801561036657600080fd5b50610381600480360381019061037c9190612d78565b610f03565b60405161038e9190612db4565b60405180910390f35b3480156103a357600080fd5b506103ac610fbb565b6040516103b99190612826565b60405180910390f35b3480156103ce57600080fd5b506103e960048036038101906103e49190612a0f565b61104d565b6040516103f69190612e7e565b60405180910390f35b34801561040b57600080fd5b5061042660048036038101906104219190612ecc565b6110ee565b005b34801561043457600080fd5b5061044f600480360381019061044a9190612a0f565b611104565b60405161046499989796959493929190612f0c565b60405180910390f35b34801561047957600080fd5b50610494600480360381019061048f919061304f565b611317565b005b6104b060048036038101906104ab9190612a0f565b611379565b005b3480156104be57600080fd5b506104d960048036038101906104d49190612a0f565b6115aa565b6040516104e69190612826565b60405180910390f35b3480156104fb57600080fd5b5061051660048036038101906105119190612a0f565b6116bd565b6040516105239190612e7e565b60405180910390f35b34801561053857600080fd5b5061054161175e565b60405161054e9190612db4565b60405180910390f35b34801561056357600080fd5b5061056c611764565b005b34801561057a57600080fd5b50610595600480360381019061059091906130d2565b6117b3565b6040516105a29190612772565b60405180910390f35b60007f80ac58cd000000000000000000000000000000000000000000000000000000007bffffffffffffffffffffffffffffffffffffffffffffffffffffffff1916827bffffffffffffffffffffffffffffffffffffffffffffffffffffffff1916148061067657507f5b5e139f000000000000000000000000000000000000000000000000000000007bffffffffffffffffffffffffffffffffffffffffffffffffffffffff1916827bffffffffffffffffffffffffffffffffffffffffffffffffffffffff1916145b806106865750610685826118e0565b5b9050919050565b60606000805461069c90613141565b80601f01602080910402602001604051908101604052809291908181526020018280546106c890613141565b80156107155780601f106106ea57610100808354040283529160200191610715565b820191906000526020600020905b8154815290600101906020018083116106f857829003601f168201915b5050505050905090565b81600115156008600083815260200190815260200160002060050160009054906101000a900460ff1615151461078a576040517f08c379a0000000000000000000000000000000000000000000000000000000008152600401610781906131bf565b60405180910390fd5b600b600084815260200190815260200160002060405180604001604052803373ffffffffffffffffffffffffffffffffffffffff16815260200184815250908060018154018082558091505060019003906000526020600020906002020160009091909190915060008201518160000160006101000a81548173ffffffffffffffffffffffffffffffffffffffff021916908373ffffffffffffffffffffffffffffffffffffffff160217905550602082015181600101908051906020019061085492919061261b565b50505060086000848152602001908152602001600020600801600081548092919061087e9061320e565b9190505550505050565b60006108938261194a565b6004600083815260200190815260200160002060009054906101000a900473ffffffffffffffffffffffffffffffffffffffff169050919050565b60006108d982610e51565b90508073ffffffffffffffffffffffffffffffffffffffff168373ffffffffffffffffffffffffffffffffffffffff16141561094a576040517f08c379a0000000000000000000000000000000000000000000000000000000008152600401610941906132c9565b60405180910390fd5b8073ffffffffffffffffffffffffffffffffffffffff16610969611995565b73ffffffffffffffffffffffffffffffffffffffff161480610998575061099781610992611995565b6117b3565b5b6109d7576040517f08c379a00000000000000000000000000000000000000000000000000000000081526004016109ce9061335b565b60405180910390fd5b6109e1838361199d565b505050565b6109f76109f1611995565b82611a56565b610a36576040517f08c379a0000000000000000000000000000000000000000000000000000000008152600401610a2d906133ed565b60405180910390fd5b610a41838383611aeb565b505050565b6060600b6000838152602001908152602001600020805480602002602001604051908101604052809291908181526020016000905b82821015610b9557838290600052602060002090600202016040518060400160405290816000820160009054906101000a900473ffffffffffffffffffffffffffffffffffffffff1673ffffffffffffffffffffffffffffffffffffffff1673ffffffffffffffffffffffffffffffffffffffff168152602001600182018054610b0490613141565b80601f0160208091040260200160405190810160405280929190818152602001828054610b3090613141565b8015610b7d5780601f10610b5257610100808354040283529160200191610b7d565b820191906000526020600020905b815481529060010190602001808311610b6057829003601f168201915b50505050508152505081526020019060010190610a7b565b505050509050919050565b610bbb83838360405180602001604052806000815250611317565b505050565b60076000815480929190610bd39061320e565b919050555060405180610120016040528060075481526020013373ffffffffffffffffffffffffffffffffffffffff168152602001848152602001838152602001828152602001600115158152602001600081526020016000815260200160008152506008600060075481526020019081526020016000206000820151816000015560208201518160010160006101000a81548173ffffffffffffffffffffffffffffffffffffffff021916908373ffffffffffffffffffffffffffffffffffffffff1602179055506040820151816002019080519060200190610cb892919061261b565b506060820151816003019080519060200190610cd592919061261b565b506080820151816004019080519060200190610cf292919061261b565b5060a08201518160050160006101000a81548160ff02191690831515021790555060c0820151816006015560e082015181600701556101008201518160080155905050610d3d611764565b505050565b80600115156008600083815260200190815260200160002060050160009054906101000a900460ff16151514610dad576040517f08c379a0000000000000000000000000000000000000000000000000000000008152600401610da4906131bf565b60405180910390fd5b60096000838152602001908152602001600020339080600181540180825580915050600190039060005260206000200160009091909190916101000a81548173ffffffffffffffffffffffffffffffffffffffff021916908373ffffffffffffffffffffffffffffffffffffffff160217905550600860008381526020019081526020016000206006016000815480929190610e489061320e565b91905055505050565b6000806002600084815260200190815260200160002060009054906101000a900473ffffffffffffffffffffffffffffffffffffffff169050600073ffffffffffffffffffffffffffffffffffffffff168173ffffffffffffffffffffffffffffffffffffffff161415610efa576040517f08c379a0000000000000000000000000000000000000000000000000000000008152600401610ef190613459565b60405180910390fd5b80915050919050565b60008073ffffffffffffffffffffffffffffffffffffffff168273ffffffffffffffffffffffffffffffffffffffff161415610f74576040517f08c379a0000000000000000000000000000000000000000000000000000000008152600401610f6b906134eb565b60405180910390fd5b600360008373ffffffffffffffffffffffffffffffffffffffff1673ffffffffffffffffffffffffffffffffffffffff168152602001908152602001600020549050919050565b606060018054610fca90613141565b80601f0160208091040260200160405190810160405280929190818152602001828054610ff690613141565b80156110435780601f1061101857610100808354040283529160200191611043565b820191906000526020600020905b81548152906001019060200180831161102657829003601f168201915b5050505050905090565b6060600960008381526020019081526020016000208054806020026020016040519081016040528092919081815260200182805480156110e257602002820191906000526020600020905b8160009054906101000a900473ffffffffffffffffffffffffffffffffffffffff1673ffffffffffffffffffffffffffffffffffffffff1681526020019060010190808311611098575b50505050509050919050565b6111006110f9611995565b8383611d52565b5050565b60086020528060005260406000206000915090508060000154908060010160009054906101000a900473ffffffffffffffffffffffffffffffffffffffff169080600201805461115390613141565b80601f016020809104026020016040519081016040528092919081815260200182805461117f90613141565b80156111cc5780601f106111a1576101008083540402835291602001916111cc565b820191906000526020600020905b8154815290600101906020018083116111af57829003601f168201915b5050505050908060030180546111e190613141565b80601f016020809104026020016040519081016040528092919081815260200182805461120d90613141565b801561125a5780601f1061122f5761010080835404028352916020019161125a565b820191906000526020600020905b81548152906001019060200180831161123d57829003601f168201915b50505050509080600401805461126f90613141565b80601f016020809104026020016040519081016040528092919081815260200182805461129b90613141565b80156112e85780601f106112bd576101008083540402835291602001916112e8565b820191906000526020600020905b8154815290600101906020018083116112cb57829003601f168201915b5050505050908060050160009054906101000a900460ff16908060060154908060070154908060080154905089565b611328611322611995565b83611a56565b611367576040517f08c379a000000000000000000000000000000000000000000000000000000000815260040161135e906133ed565b60405180910390fd5b61137384848484611ebf565b50505050565b80600115156008600083815260200190815260200160002060050160009054906101000a900460ff161515146113e4576040517f08c379a00000000000000000000000000000000000000000000000000000000081526004016113db906131bf565b60405180910390fd5b6008600083815260200190815260200160002060010160009054906101000a900473ffffffffffffffffffffffffffffffffffffffff1673ffffffffffffffffffffffffffffffffffffffff163373ffffffffffffffffffffffffffffffffffffffff161415611489576040517f08c379a000000000000000000000000000000000000000000000000000000000815260040161148090613557565b60405180910390fd5b6008600083815260200190815260200160002060010160009054906101000a900473ffffffffffffffffffffffffffffffffffffffff1673ffffffffffffffffffffffffffffffffffffffff166108fc349081150290604051600060405180830381858888f19350505050158015611505573d6000803e3d6000fd5b50600a6000838152602001908152602001600020339080600181540180825580915050600190039060005260206000200160009091909190916101000a81548173ffffffffffffffffffffffffffffffffffffffff021916908373ffffffffffffffffffffffffffffffffffffffff1602179055506008600083815260200190815260200160002060070160008154809291906115a19061320e565b91905055505050565b60606115b58261194a565b60006006600084815260200190815260200160002080546115d590613141565b80601f016020809104026020016040519081016040528092919081815260200182805461160190613141565b801561164e5780601f106116235761010080835404028352916020019161164e565b820191906000526020600020905b81548152906001019060200180831161163157829003601f168201915b50505050509050600061165f611f1b565b90506000815114156116755781925050506116b8565b6000825111156116aa5780826040516020016116929291906135b3565b604051602081830303815290604052925050506116b8565b6116b384611f32565b925050505b919050565b6060600a600083815260200190815260200160002080548060200260200160405190810160405280929190818152602001828054801561175257602002820191906000526020600020905b8160009054906101000a900473ffffffffffffffffffffffffffffffffffffffff1673ffffffffffffffffffffffffffffffffffffffff1681526020019060010190808311611708575b50505050509050919050565b60075481565b61177033600754611f9a565b6117b16007546040518060400160405280601d81526020017f68747470733a2f2f6a736f6e6b65657065722e636f6d2f622f34565843000000815250611fb8565b565b6000600560008473ffffffffffffffffffffffffffffffffffffffff1673ffffffffffffffffffffffffffffffffffffffff16815260200190815260200160002060008373ffffffffffffffffffffffffffffffffffffffff1673ffffffffffffffffffffffffffffffffffffffff16815260200190815260200160002060009054906101000a900460ff16905092915050565b6118dd8160405160240161185b9190612826565b6040516020818303038152906040527f41304fac000000000000000000000000000000000000000000000000000000007bffffffffffffffffffffffffffffffffffffffffffffffffffffffff19166020820180517bffffffffffffffffffffffffffffffffffffffffffffffffffffffff838183161783525050505061202c565b50565b60007f01ffc9a7000000000000000000000000000000000000000000000000000000007bffffffffffffffffffffffffffffffffffffffffffffffffffffffff1916827bffffffffffffffffffffffffffffffffffffffffffffffffffffffff1916149050919050565b61195381612055565b611992576040517f08c379a000000000000000000000000000000000000000000000000000000000815260040161198990613459565b60405180910390fd5b50565b600033905090565b816004600083815260200190815260200160002060006101000a81548173ffffffffffffffffffffffffffffffffffffffff021916908373ffffffffffffffffffffffffffffffffffffffff160217905550808273ffffffffffffffffffffffffffffffffffffffff16611a1083610e51565b73ffffffffffffffffffffffffffffffffffffffff167f8c5be1e5ebec7d5bd14f71427d1e84f3dd0314c0f7b2291e5b200ac8c7c3b92560405160405180910390a45050565b600080611a6283610e51565b90508073ffffffffffffffffffffffffffffffffffffffff168473ffffffffffffffffffffffffffffffffffffffff161480611aa45750611aa381856117b3565b5b80611ae257508373ffffffffffffffffffffffffffffffffffffffff16611aca84610888565b73ffffffffffffffffffffffffffffffffffffffff16145b91505092915050565b8273ffffffffffffffffffffffffffffffffffffffff16611b0b82610e51565b73ffffffffffffffffffffffffffffffffffffffff1614611b61576040517f08c379a0000000000000000000000000000000000000000000000000000000008152600401611b5890613649565b60405180910390fd5b600073ffffffffffffffffffffffffffffffffffffffff168273ffffffffffffffffffffffffffffffffffffffff161415611bd1576040517f08c379a0000000000000000000000000000000000000000000000000000000008152600401611bc8906136db565b60405180910390fd5b611bdc8383836120c1565b611be760008261199d565b6001600360008573ffffffffffffffffffffffffffffffffffffffff1673ffffffffffffffffffffffffffffffffffffffff1681526020019081526020016000206000828254611c3791906136fb565b925050819055506001600360008473ffffffffffffffffffffffffffffffffffffffff1673ffffffffffffffffffffffffffffffffffffffff1681526020019081526020016000206000828254611c8e919061372f565b92505081905550816002600083815260200190815260200160002060006101000a81548173ffffffffffffffffffffffffffffffffffffffff021916908373ffffffffffffffffffffffffffffffffffffffff160217905550808273ffffffffffffffffffffffffffffffffffffffff168473ffffffffffffffffffffffffffffffffffffffff167fddf252ad1be2c89b69c2b068fc378daa952ba7f163c4a11628f55a4df523b3ef60405160405180910390a4611d4d8383836120c6565b505050565b8173ffffffffffffffffffffffffffffffffffffffff168373ffffffffffffffffffffffffffffffffffffffff161415611dc1576040517f08c379a0000000000000000000000000000000000000000000000000000000008152600401611db8906137d1565b60405180910390fd5b80600560008573ffffffffffffffffffffffffffffffffffffffff1673ffffffffffffffffffffffffffffffffffffffff16815260200190815260200160002060008473ffffffffffffffffffffffffffffffffffffffff1673ffffffffffffffffffffffffffffffffffffffff16815260200190815260200160002060006101000a81548160ff0219169083151502179055508173ffffffffffffffffffffffffffffffffffffffff168373ffffffffffffffffffffffffffffffffffffffff167f17307eab39ab6107e8899845ad3d59bd9653f200f220920489ca2b5937696c3183604051611eb29190612772565b60405180910390a3505050565b611eca848484611aeb565b611ed6848484846120cb565b611f15576040517f08c379a0000000000000000000000000000000000000000000000000000000008152600401611f0c90613863565b60405180910390fd5b50505050565b606060405180602001604052806000815250905090565b6060611f3d8261194a565b6000611f47611f1b565b90506000815111611f675760405180602001604052806000815250611f92565b80611f7184612262565b604051602001611f829291906135b3565b6040516020818303038152906040525b915050919050565b611fb48282604051806020016040528060008152506123c3565b5050565b611fc182612055565b612000576040517f08c379a0000000000000000000000000000000000000000000000000000000008152600401611ff7906138f5565b60405180910390fd5b8060066000848152602001908152602001600020908051906020019061202792919061261b565b505050565b60008151905060006a636f6e736f6c652e6c6f679050602083016000808483855afa5050505050565b60008073ffffffffffffffffffffffffffffffffffffffff166002600084815260200190815260200160002060009054906101000a900473ffffffffffffffffffffffffffffffffffffffff1673ffffffffffffffffffffffffffffffffffffffff1614159050919050565b505050565b505050565b60006120ec8473ffffffffffffffffffffffffffffffffffffffff1661241e565b15612255578373ffffffffffffffffffffffffffffffffffffffff1663150b7a02612115611995565b8786866040518563ffffffff1660e01b8152600401612137949392919061396a565b602060405180830381600087803b15801561215157600080fd5b505af192505050801561218257506040513d601f19601f8201168201806040525081019061217f91906139cb565b60015b612205573d80600081146121b2576040519150601f19603f3d011682016040523d82523d6000602084013e6121b7565b606091505b506000815114156121fd576040517f08c379a00000000000000000000000000000000000000000000000000000000081526004016121f490613863565b60405180910390fd5b805181602001fd5b63150b7a0260e01b7bffffffffffffffffffffffffffffffffffffffffffffffffffffffff1916817bffffffffffffffffffffffffffffffffffffffffffffffffffffffff19161491505061225a565b600190505b949350505050565b606060008214156122aa576040518060400160405280600181526020017f300000000000000000000000000000000000000000000000000000000000000081525090506123be565b600082905060005b600082146122dc5780806122c59061320e565b915050600a826122d59190613a27565b91506122b2565b60008167ffffffffffffffff8111156122f8576122f7612888565b5b6040519080825280601f01601f19166020018201604052801561232a5781602001600182028036833780820191505090505b5090505b600085146123b75760018261234391906136fb565b9150600a856123529190613a58565b603061235e919061372f565b60f81b81838151811061237457612373613a89565b5b60200101907effffffffffffffffffffffffffffffffffffffffffffffffffffffffffffff1916908160001a905350600a856123b09190613a27565b945061232e565b8093505050505b919050565b6123cd8383612441565b6123da60008484846120cb565b612419576040517f08c379a000000000000000000000000000000000000000000000000000000000815260040161241090613863565b60405180910390fd5b505050565b6000808273ffffffffffffffffffffffffffffffffffffffff163b119050919050565b600073ffffffffffffffffffffffffffffffffffffffff168273ffffffffffffffffffffffffffffffffffffffff1614156124b1576040517f08c379a00000000000000000000000000000000000000000000000000000000081526004016124a890613b04565b60405180910390fd5b6124ba81612055565b156124fa576040517f08c379a00000000000000000000000000000000000000000000000000000000081526004016124f190613b70565b60405180910390fd5b612506600083836120c1565b6001600360008473ffffffffffffffffffffffffffffffffffffffff1673ffffffffffffffffffffffffffffffffffffffff1681526020019081526020016000206000828254612556919061372f565b92505081905550816002600083815260200190815260200160002060006101000a81548173ffffffffffffffffffffffffffffffffffffffff021916908373ffffffffffffffffffffffffffffffffffffffff160217905550808273ffffffffffffffffffffffffffffffffffffffff16600073ffffffffffffffffffffffffffffffffffffffff167fddf252ad1be2c89b69c2b068fc378daa952ba7f163c4a11628f55a4df523b3ef60405160405180910390a4612617600083836120c6565b5050565b82805461262790613141565b90600052602060002090601f0160209004810192826126495760008555612690565b82601f1061266257805160ff1916838001178555612690565b82800160010185558215612690579182015b8281111561268f578251825591602001919060010190612674565b5b50905061269d91906126a1565b5090565b5b808211156126ba5760008160009055506001016126a2565b5090565b6000604051905090565b600080fd5b600080fd5b60007fffffffff0000000000000000000000000000000000000000000000000000000082169050919050565b612707816126d2565b811461271257600080fd5b50565b600081359050612724816126fe565b92915050565b6000602082840312156127405761273f6126c8565b5b600061274e84828501612715565b91505092915050565b60008115159050919050565b61276c81612757565b82525050565b60006020820190506127876000830184612763565b92915050565b600081519050919050565b600082825260208201905092915050565b60005b838110156127c75780820151818401526020810190506127ac565b838111156127d6576000848401525b50505050565b6000601f19601f8301169050919050565b60006127f88261278d565b6128028185612798565b93506128128185602086016127a9565b61281b816127dc565b840191505092915050565b6000602082019050818103600083015261284081846127ed565b905092915050565b6000819050919050565b61285b81612848565b811461286657600080fd5b50565b60008135905061287881612852565b92915050565b600080fd5b600080fd5b7f4e487b7100000000000000000000000000000000000000000000000000000000600052604160045260246000fd5b6128c0826127dc565b810181811067ffffffffffffffff821117156128df576128de612888565b5b80604052505050565b60006128f26126be565b90506128fe82826128b7565b919050565b600067ffffffffffffffff82111561291e5761291d612888565b5b612927826127dc565b9050602081019050919050565b82818337600083830152505050565b600061295661295184612903565b6128e8565b90508281526020810184848401111561297257612971612883565b5b61297d848285612934565b509392505050565b600082601f83011261299a5761299961287e565b5b81356129aa848260208601612943565b91505092915050565b600080604083850312156129ca576129c96126c8565b5b60006129d885828601612869565b925050602083013567ffffffffffffffff8111156129f9576129f86126cd565b5b612a0585828601612985565b9150509250929050565b600060208284031215612a2557612a246126c8565b5b6000612a3384828501612869565b91505092915050565b600073ffffffffffffffffffffffffffffffffffffffff82169050919050565b6000612a6782612a3c565b9050919050565b612a7781612a5c565b82525050565b6000602082019050612a926000830184612a6e565b92915050565b612aa181612a5c565b8114612aac57600080fd5b50565b600081359050612abe81612a98565b92915050565b60008060408385031215612adb57612ada6126c8565b5b6000612ae985828601612aaf565b9250506020612afa85828601612869565b9150509250929050565b600080600060608486031215612b1d57612b1c6126c8565b5b6000612b2b86828701612aaf565b9350506020612b3c86828701612aaf565b9250506040612b4d86828701612869565b9150509250925092565b600081519050919050565b600082825260208201905092915050565b6000819050602082019050919050565b612b8c81612a5c565b82525050565b600082825260208201905092915050565b6000612bae8261278d565b612bb88185612b92565b9350612bc88185602086016127a9565b612bd1816127dc565b840191505092915050565b6000604083016000830151612bf46000860182612b83565b5060208301518482036020860152612c0c8282612ba3565b9150508091505092915050565b6000612c258383612bdc565b905092915050565b6000602082019050919050565b6000612c4582612b57565b612c4f8185612b62565b935083602082028501612c6185612b73565b8060005b85811015612c9d5784840389528151612c7e8582612c19565b9450612c8983612c2d565b925060208a01995050600181019050612c65565b50829750879550505050505092915050565b60006020820190508181036000830152612cc98184612c3a565b905092915050565b600080600060608486031215612cea57612ce96126c8565b5b600084013567ffffffffffffffff811115612d0857612d076126cd565b5b612d1486828701612985565b935050602084013567ffffffffffffffff811115612d3557612d346126cd565b5b612d4186828701612985565b925050604084013567ffffffffffffffff811115612d6257612d616126cd565b5b612d6e86828701612985565b9150509250925092565b600060208284031215612d8e57612d8d6126c8565b5b6000612d9c84828501612aaf565b91505092915050565b612dae81612848565b82525050565b6000602082019050612dc96000830184612da5565b92915050565b600081519050919050565b600082825260208201905092915050565b6000819050602082019050919050565b6000612e078383612b83565b60208301905092915050565b6000602082019050919050565b6000612e2b82612dcf565b612e358185612dda565b9350612e4083612deb565b8060005b83811015612e71578151612e588882612dfb565b9750612e6383612e13565b925050600181019050612e44565b5085935050505092915050565b60006020820190508181036000830152612e988184612e20565b905092915050565b612ea981612757565b8114612eb457600080fd5b50565b600081359050612ec681612ea0565b92915050565b60008060408385031215612ee357612ee26126c8565b5b6000612ef185828601612aaf565b9250506020612f0285828601612eb7565b9150509250929050565b600061012082019050612f22600083018c612da5565b612f2f602083018b612a6e565b8181036040830152612f41818a6127ed565b90508181036060830152612f5581896127ed565b90508181036080830152612f6981886127ed565b9050612f7860a0830187612763565b612f8560c0830186612da5565b612f9260e0830185612da5565b612fa0610100830184612da5565b9a9950505050505050505050565b600067ffffffffffffffff821115612fc957612fc8612888565b5b612fd2826127dc565b9050602081019050919050565b6000612ff2612fed84612fae565b6128e8565b90508281526020810184848401111561300e5761300d612883565b5b613019848285612934565b509392505050565b600082601f8301126130365761303561287e565b5b8135613046848260208601612fdf565b91505092915050565b60008060008060808587031215613069576130686126c8565b5b600061307787828801612aaf565b945050602061308887828801612aaf565b935050604061309987828801612869565b925050606085013567ffffffffffffffff8111156130ba576130b96126cd565b5b6130c687828801613021565b91505092959194509250565b600080604083850312156130e9576130e86126c8565b5b60006130f785828601612aaf565b925050602061310885828601612aaf565b9150509250929050565b7f4e487b7100000000000000000000000000000000000000000000000000000000600052602260045260246000fd5b6000600282049050600182168061315957607f821691505b6020821081141561316d5761316c613112565b5b50919050565b7f436f6e74656e74206e6f7420666f756e64000000000000000000000000000000600082015250565b60006131a9601183612798565b91506131b482613173565b602082019050919050565b600060208201905081810360008301526131d88161319c565b9050919050565b7f4e487b7100000000000000000000000000000000000000000000000000000000600052601160045260246000fd5b600061321982612848565b91507fffffffffffffffffffffffffffffffffffffffffffffffffffffffffffffffff82141561324c5761324b6131df565b5b600182019050919050565b7f4552433732313a20617070726f76616c20746f2063757272656e74206f776e6560008201527f7200000000000000000000000000000000000000000000000000000000000000602082015250565b60006132b3602183612798565b91506132be82613257565b604082019050919050565b600060208201905081810360008301526132e2816132a6565b9050919050565b7f4552433732313a20617070726f76652063616c6c6572206973206e6f7420746f60008201527f6b656e206f776e6572206e6f7220617070726f76656420666f7220616c6c0000602082015250565b6000613345603e83612798565b9150613350826132e9565b604082019050919050565b6000602082019050818103600083015261337481613338565b9050919050565b7f4552433732313a2063616c6c6572206973206e6f7420746f6b656e206f776e6560008201527f72206e6f7220617070726f766564000000000000000000000000000000000000602082015250565b60006133d7602e83612798565b91506133e28261337b565b604082019050919050565b60006020820190508181036000830152613406816133ca565b9050919050565b7f4552433732313a20696e76616c696420746f6b656e2049440000000000000000600082015250565b6000613443601883612798565b915061344e8261340d565b602082019050919050565b6000602082019050818103600083015261347281613436565b9050919050565b7f4552433732313a2061646472657373207a65726f206973206e6f74206120766160008201527f6c6964206f776e65720000000000000000000000000000000000000000000000602082015250565b60006134d5602983612798565b91506134e082613479565b604082019050919050565b60006020820190508181036000830152613504816134c8565b9050919050565b7f43616e27742074697020796f757273656c660000000000000000000000000000600082015250565b6000613541601283612798565b915061354c8261350b565b602082019050919050565b6000602082019050818103600083015261357081613534565b9050919050565b600081905092915050565b600061358d8261278d565b6135978185613577565b93506135a78185602086016127a9565b80840191505092915050565b60006135bf8285613582565b91506135cb8284613582565b91508190509392505050565b7f4552433732313a207472616e736665722066726f6d20696e636f72726563742060008201527f6f776e6572000000000000000000000000000000000000000000000000000000602082015250565b6000613633602583612798565b915061363e826135d7565b604082019050919050565b6000602082019050818103600083015261366281613626565b9050919050565b7f4552433732313a207472616e7366657220746f20746865207a65726f2061646460008201527f7265737300000000000000000000000000000000000000000000000000000000602082015250565b60006136c5602483612798565b91506136d082613669565b604082019050919050565b600060208201905081810360008301526136f4816136b8565b9050919050565b600061370682612848565b915061371183612848565b925082821015613724576137236131df565b5b828203905092915050565b600061373a82612848565b915061374583612848565b9250827fffffffffffffffffffffffffffffffffffffffffffffffffffffffffffffffff0382111561377a576137796131df565b5b828201905092915050565b7f4552433732313a20617070726f766520746f2063616c6c657200000000000000600082015250565b60006137bb601983612798565b91506137c682613785565b602082019050919050565b600060208201905081810360008301526137ea816137ae565b9050919050565b7f4552433732313a207472616e7366657220746f206e6f6e20455243373231526560008201527f63656976657220696d706c656d656e7465720000000000000000000000000000602082015250565b600061384d603283612798565b9150613858826137f1565b604082019050919050565b6000602082019050818103600083015261387c81613840565b9050919050565b7f45524337323155524953746f726167653a2055524920736574206f66206e6f6e60008201527f6578697374656e7420746f6b656e000000000000000000000000000000000000602082015250565b60006138df602e83612798565b91506138ea82613883565b604082019050919050565b6000602082019050818103600083015261390e816138d2565b9050919050565b600081519050919050565b600082825260208201905092915050565b600061393c82613915565b6139468185613920565b93506139568185602086016127a9565b61395f816127dc565b840191505092915050565b600060808201905061397f6000830187612a6e565b61398c6020830186612a6e565b6139996040830185612da5565b81810360608301526139ab8184613931565b905095945050505050565b6000815190506139c5816126fe565b92915050565b6000602082840312156139e1576139e06126c8565b5b60006139ef848285016139b6565b91505092915050565b7f4e487b7100000000000000000000000000000000000000000000000000000000600052601260045260246000fd5b6000613a3282612848565b9150613a3d83612848565b925082613a4d57613a4c6139f8565b5b828204905092915050565b6000613a6382612848565b9150613a6e83612848565b925082613a7e57613a7d6139f8565b5b828206905092915050565b7f4e487b7100000000000000000000000000000000000000000000000000000000600052603260045260246000fd5b7f4552433732313a206d696e7420746f20746865207a65726f2061646472657373600082015250565b6000613aee602083612798565b9150613af982613ab8565b602082019050919050565b60006020820190508181036000830152613b1d81613ae1565b9050919050565b7f4552433732313a20746f6b656e20616c7265616479206d696e74656400000000600082015250565b6000613b5a601c83612798565b9150613b6582613b24565b602082019050919050565b60006020820190508181036000830152613b8981613b4d565b905091905056fea26469706673582212206e957f34860790c39cbc79cc24027da69f1f4112639db1e0cb7a32264fa0472964736f6c63430008090033",
  "linkReferences": {},
  "deployedLinkReferences": {}
}